{
  "contractName": "smartrat",
  "abi": [
    {
      "inputs": [],
      "payable": false,
      "stateMutability": "nonpayable",
      "type": "constructor"
    },
    {
      "constant": true,
      "inputs": [],
      "name": "admin",
      "outputs": [
        {
          "internalType": "address",
          "name": "",
          "type": "address"
        }
      ],
      "payable": false,
      "stateMutability": "view",
      "type": "function"
    },
    {
      "constant": true,
      "inputs": [
        {
          "internalType": "address",
          "name": "",
          "type": "address"
        }
      ],
      "name": "distributors",
      "outputs": [
        {
          "internalType": "address",
          "name": "id",
          "type": "address"
        },
        {
          "internalType": "string",
          "name": "name",
          "type": "string"
        },
        {
          "internalType": "uint256",
          "name": "pincode",
          "type": "uint256"
        },
        {
          "internalType": "uint256",
          "name": "aadhaarID",
          "type": "uint256"
        },
        {
          "internalType": "string",
          "name": "ipfsHash",
          "type": "string"
        },
        {
          "internalType": "bool",
          "name": "active",
          "type": "bool"
        },
        {
          "internalType": "string",
          "name": "mailID",
          "type": "string"
        },
        {
          "internalType": "string",
          "name": "phone",
          "type": "string"
        }
      ],
      "payable": false,
      "stateMutability": "view",
      "type": "function"
    },
    {
      "constant": true,
      "inputs": [
        {
          "internalType": "uint256",
          "name": "",
          "type": "uint256"
        },
        {
          "internalType": "uint256",
          "name": "",
          "type": "uint256"
        }
      ],
      "name": "distributorsByPin",
      "outputs": [
        {
          "internalType": "address",
          "name": "",
          "type": "address"
        }
      ],
      "payable": false,
      "stateMutability": "view",
      "type": "function"
    },
    {
      "constant": true,
      "inputs": [
        {
          "internalType": "address",
          "name": "",
          "type": "address"
        }
      ],
      "name": "farmers",
      "outputs": [
        {
          "internalType": "address payable",
          "name": "farmerID",
          "type": "address"
        },
        {
          "internalType": "string",
          "name": "name",
          "type": "string"
        },
        {
          "internalType": "uint256",
          "name": "pincode",
          "type": "uint256"
        },
        {
          "internalType": "uint256",
          "name": "aadhaarID",
          "type": "uint256"
        },
        {
          "internalType": "string",
          "name": "ipfsHash",
          "type": "string"
        },
        {
          "internalType": "bool",
          "name": "active",
          "type": "bool"
        },
        {
          "internalType": "string",
          "name": "mailID",
          "type": "string"
        },
        {
          "internalType": "string",
          "name": "phone",
          "type": "string"
        }
      ],
      "payable": false,
      "stateMutability": "view",
      "type": "function"
    },
    {
      "constant": true,
      "inputs": [
        {
          "internalType": "uint256",
          "name": "",
          "type": "uint256"
        },
        {
          "internalType": "uint256",
          "name": "",
          "type": "uint256"
        }
      ],
      "name": "farmersByPin",
      "outputs": [
        {
          "internalType": "address",
          "name": "",
          "type": "address"
        }
      ],
      "payable": false,
      "stateMutability": "view",
      "type": "function"
    },
    {
      "constant": true,
      "inputs": [
        {
          "internalType": "address",
          "name": "",
          "type": "address"
        }
      ],
      "name": "lAdmins",
      "outputs": [
        {
          "internalType": "address payable",
          "name": "localID",
          "type": "address"
        },
        {
          "internalType": "string",
          "name": "name",
          "type": "string"
        },
        {
          "internalType": "uint256",
          "name": "aadhaarID",
          "type": "uint256"
        },
        {
          "internalType": "string",
          "name": "mailID",
          "type": "string"
        },
        {
          "internalType": "string",
          "name": "phone",
          "type": "string"
        },
        {
          "internalType": "uint256",
          "name": "pincode",
          "type": "uint256"
        },
        {
          "internalType": "string",
          "name": "ipfsHash",
          "type": "string"
        }
      ],
      "payable": false,
      "stateMutability": "view",
      "type": "function"
    },
    {
      "constant": true,
      "inputs": [
        {
          "internalType": "address",
          "name": "",
          "type": "address"
        }
      ],
      "name": "millers",
      "outputs": [
        {
          "internalType": "address payable",
          "name": "miller_id",
          "type": "address"
        },
        {
          "internalType": "string",
          "name": "name",
          "type": "string"
        },
        {
          "internalType": "uint256",
          "name": "pincode",
          "type": "uint256"
        },
        {
          "internalType": "uint256",
          "name": "aadhaarID",
          "type": "uint256"
        },
        {
          "internalType": "string",
          "name": "ipfsHash",
          "type": "string"
        },
        {
          "internalType": "bool",
          "name": "active",
          "type": "bool"
        },
        {
          "internalType": "string",
          "name": "mailID",
          "type": "string"
        },
        {
          "internalType": "string",
          "name": "phone",
          "type": "string"
        },
        {
          "internalType": "uint256",
          "name": "storage_cap",
          "type": "uint256"
        },
        {
          "internalType": "uint256",
          "name": "hulling_cap",
          "type": "uint256"
        }
      ],
      "payable": false,
      "stateMutability": "view",
      "type": "function"
    },
    {
      "constant": true,
      "inputs": [
        {
          "internalType": "uint256",
          "name": "",
          "type": "uint256"
        },
        {
          "internalType": "uint256",
          "name": "",
          "type": "uint256"
        }
      ],
      "name": "millersByPin",
      "outputs": [
        {
          "internalType": "address",
          "name": "",
          "type": "address"
        }
      ],
      "payable": false,
      "stateMutability": "view",
      "type": "function"
    },
    {
      "constant": true,
      "inputs": [
        {
          "internalType": "address",
          "name": "",
          "type": "address"
        },
        {
          "internalType": "uint256",
          "name": "",
          "type": "uint256"
        }
      ],
      "name": "mygoods",
      "outputs": [
        {
          "internalType": "address",
          "name": "fromId",
          "type": "address"
        },
        {
          "internalType": "address",
          "name": "toId",
          "type": "address"
        },
        {
          "internalType": "uint256",
          "name": "time",
          "type": "uint256"
        },
        {
          "internalType": "uint256",
          "name": "rice",
          "type": "uint256"
        },
        {
          "internalType": "uint256",
          "name": "sugar",
          "type": "uint256"
        },
        {
          "internalType": "uint256",
          "name": "wheat",
          "type": "uint256"
        },
        {
          "internalType": "uint256",
          "name": "kerosene",
          "type": "uint256"
        }
      ],
      "payable": false,
      "stateMutability": "view",
      "type": "function"
    },
    {
      "constant": true,
      "inputs": [
        {
          "internalType": "address",
          "name": "",
          "type": "address"
        }
      ],
      "name": "shops",
      "outputs": [
        {
          "internalType": "uint256",
          "name": "pincode",
          "type": "uint256"
        },
        {
          "internalType": "address",
          "name": "id",
          "type": "address"
        },
        {
          "internalType": "bool",
          "name": "active",
          "type": "bool"
        },
        {
          "internalType": "string",
          "name": "mailID",
          "type": "string"
        },
        {
          "internalType": "string",
          "name": "phone",
          "type": "string"
        },
        {
          "internalType": "uint256",
          "name": "rice",
          "type": "uint256"
        },
        {
          "internalType": "uint256",
          "name": "sugar",
          "type": "uint256"
        },
        {
          "internalType": "uint256",
          "name": "wheat",
          "type": "uint256"
        },
        {
          "internalType": "uint256",
          "name": "kerosene",
          "type": "uint256"
        }
      ],
      "payable": false,
      "stateMutability": "view",
      "type": "function"
    },
    {
      "constant": true,
      "inputs": [
        {
          "internalType": "uint256",
          "name": "",
          "type": "uint256"
        },
        {
          "internalType": "uint256",
          "name": "",
          "type": "uint256"
        }
      ],
      "name": "shopsByPin",
      "outputs": [
        {
          "internalType": "address",
          "name": "",
          "type": "address"
        }
      ],
      "payable": false,
      "stateMutability": "view",
      "type": "function"
    },
    {
      "constant": false,
      "inputs": [
        {
          "internalType": "address payable",
          "name": "_address",
          "type": "address"
        },
        {
          "internalType": "string",
          "name": "_name",
          "type": "string"
        },
        {
          "internalType": "uint256",
          "name": "_aadhaar",
          "type": "uint256"
        },
        {
          "internalType": "string",
          "name": "_mail",
          "type": "string"
        },
        {
          "internalType": "string",
          "name": "_phone",
          "type": "string"
        },
        {
          "internalType": "string",
          "name": "_ipfshash",
          "type": "string"
        },
        {
          "internalType": "uint256",
          "name": "_pincode",
          "type": "uint256"
        }
      ],
      "name": "createLAdmin",
      "outputs": [],
      "payable": false,
      "stateMutability": "nonpayable",
      "type": "function"
    },
    {
      "constant": false,
      "inputs": [
        {
          "internalType": "uint256",
          "name": "_pincode",
          "type": "uint256"
        },
        {
          "internalType": "address payable",
          "name": "_address",
          "type": "address"
        },
        {
          "internalType": "string",
          "name": "_mail",
          "type": "string"
        },
        {
          "internalType": "string",
          "name": "_phone",
          "type": "string"
        }
      ],
      "name": "createShop",
      "outputs": [],
      "payable": false,
      "stateMutability": "nonpayable",
      "type": "function"
    },
    {
      "constant": false,
      "inputs": [
        {
          "internalType": "uint256",
          "name": "_pincode",
          "type": "uint256"
        }
      ],
      "name": "getShopsByPin",
      "outputs": [
        {
          "internalType": "address[]",
          "name": "",
          "type": "address[]"
        }
      ],
      "payable": false,
      "stateMutability": "nonpayable",
      "type": "function"
    },
    {
      "constant": false,
      "inputs": [
        {
          "internalType": "address",
          "name": "_address",
          "type": "address"
        }
      ],
      "name": "getShopsByAddress",
      "outputs": [
        {
          "components": [
            {
              "internalType": "uint256",
              "name": "pincode",
              "type": "uint256"
            },
            {
              "internalType": "address",
              "name": "id",
              "type": "address"
            },
            {
              "internalType": "bool",
              "name": "active",
              "type": "bool"
            },
            {
              "internalType": "string",
              "name": "mailID",
              "type": "string"
            },
            {
              "internalType": "string",
              "name": "phone",
              "type": "string"
            },
            {
              "internalType": "uint256",
              "name": "rice",
              "type": "uint256"
            },
            {
              "internalType": "uint256",
              "name": "sugar",
              "type": "uint256"
            },
            {
              "internalType": "uint256",
              "name": "wheat",
              "type": "uint256"
            },
            {
              "internalType": "uint256",
              "name": "kerosene",
              "type": "uint256"
            }
          ],
          "internalType": "struct smartrat.shop",
          "name": "",
          "type": "tuple"
        }
      ],
      "payable": false,
      "stateMutability": "nonpayable",
      "type": "function"
    },
    {
      "constant": false,
      "inputs": [
        {
          "internalType": "address payable",
          "name": "_address",
          "type": "address"
        }
      ],
      "name": "getLAdminDetails",
      "outputs": [
        {
          "components": [
            {
              "internalType": "address payable",
              "name": "localID",
              "type": "address"
            },
            {
              "internalType": "string",
              "name": "name",
              "type": "string"
            },
            {
              "internalType": "uint256",
              "name": "aadhaarID",
              "type": "uint256"
            },
            {
              "internalType": "string",
              "name": "mailID",
              "type": "string"
            },
            {
              "internalType": "string",
              "name": "phone",
              "type": "string"
            },
            {
              "internalType": "uint256",
              "name": "pincode",
              "type": "uint256"
            },
            {
              "internalType": "string",
              "name": "ipfsHash",
              "type": "string"
            }
          ],
          "internalType": "struct smartrat.localAdmin",
          "name": "",
          "type": "tuple"
        }
      ],
      "payable": false,
      "stateMutability": "nonpayable",
      "type": "function"
    },
    {
      "constant": false,
      "inputs": [
        {
          "internalType": "address",
          "name": "_to",
          "type": "address"
        },
        {
          "internalType": "uint256",
          "name": "_time",
          "type": "uint256"
        },
        {
          "internalType": "uint256",
          "name": "_rice",
          "type": "uint256"
        },
        {
          "internalType": "uint256",
          "name": "_sugar",
          "type": "uint256"
        },
        {
          "internalType": "uint256",
          "name": "_wheat",
          "type": "uint256"
        },
        {
          "internalType": "uint256",
          "name": "_kerosene",
          "type": "uint256"
        }
      ],
      "name": "updateTransaction",
      "outputs": [],
      "payable": false,
      "stateMutability": "nonpayable",
      "type": "function"
    },
    {
      "constant": false,
      "inputs": [
        {
          "internalType": "address",
          "name": "_address",
          "type": "address"
        }
      ],
      "name": "getTransactionByAddress",
      "outputs": [
        {
          "components": [
            {
              "internalType": "address",
              "name": "fromId",
              "type": "address"
            },
            {
              "internalType": "address",
              "name": "toId",
              "type": "address"
            },
            {
              "internalType": "uint256",
              "name": "time",
              "type": "uint256"
            },
            {
              "internalType": "uint256",
              "name": "rice",
              "type": "uint256"
            },
            {
              "internalType": "uint256",
              "name": "sugar",
              "type": "uint256"
            },
            {
              "internalType": "uint256",
              "name": "wheat",
              "type": "uint256"
            },
            {
              "internalType": "uint256",
              "name": "kerosene",
              "type": "uint256"
            }
          ],
          "internalType": "struct smartrat.goods[]",
          "name": "",
          "type": "tuple[]"
        }
      ],
      "payable": false,
      "stateMutability": "nonpayable",
      "type": "function"
    },
    {
      "constant": false,
      "inputs": [
        {
          "internalType": "address payable",
          "name": "_address",
          "type": "address"
        },
        {
          "internalType": "string",
          "name": "_name",
          "type": "string"
        },
        {
          "internalType": "uint256",
          "name": "_pincode",
          "type": "uint256"
        },
        {
          "internalType": "uint256",
          "name": "_aadharID",
          "type": "uint256"
        },
        {
          "internalType": "string",
          "name": "_ipfsHash",
          "type": "string"
        },
        {
          "internalType": "string",
          "name": "_mail",
          "type": "string"
        },
        {
          "internalType": "string",
          "name": "_phone",
          "type": "string"
        }
      ],
      "name": "createFarmer",
      "outputs": [],
      "payable": false,
      "stateMutability": "nonpayable",
      "type": "function"
    },
    {
      "constant": false,
      "inputs": [
        {
          "internalType": "uint256",
          "name": "_pincode",
          "type": "uint256"
        }
      ],
      "name": "getFarmersByPin",
      "outputs": [
        {
          "internalType": "address[]",
          "name": "",
          "type": "address[]"
        }
      ],
      "payable": false,
      "stateMutability": "nonpayable",
      "type": "function"
    },
    {
      "constant": false,
      "inputs": [
        {
          "internalType": "address",
          "name": "_address",
          "type": "address"
        }
      ],
      "name": "getFarmersById",
      "outputs": [
        {
          "components": [
            {
              "internalType": "address payable",
              "name": "farmerID",
              "type": "address"
            },
            {
              "internalType": "string",
              "name": "name",
              "type": "string"
            },
            {
              "internalType": "uint256",
              "name": "pincode",
              "type": "uint256"
            },
            {
              "internalType": "uint256",
              "name": "aadhaarID",
              "type": "uint256"
            },
            {
              "internalType": "string",
              "name": "ipfsHash",
              "type": "string"
            },
            {
              "internalType": "bool",
              "name": "active",
              "type": "bool"
            },
            {
              "internalType": "string",
              "name": "mailID",
              "type": "string"
            },
            {
              "internalType": "string",
              "name": "phone",
              "type": "string"
            }
          ],
          "internalType": "struct smartrat.farmer",
          "name": "",
          "type": "tuple"
        }
      ],
      "payable": false,
      "stateMutability": "nonpayable",
      "type": "function"
    },
    {
      "constant": false,
      "inputs": [
        {
          "internalType": "address payable",
          "name": "_address",
          "type": "address"
        },
        {
          "internalType": "string",
          "name": "_name",
          "type": "string"
        },
        {
          "internalType": "uint256",
          "name": "_pincode",
          "type": "uint256"
        },
        {
          "internalType": "uint256",
          "name": "_aadharID",
          "type": "uint256"
        },
        {
          "internalType": "string",
          "name": "_ipfsHash",
          "type": "string"
        },
        {
          "internalType": "string",
          "name": "_mail",
          "type": "string"
        },
        {
          "internalType": "string",
          "name": "_phone",
          "type": "string"
        },
        {
          "internalType": "uint256",
          "name": "s_cap",
          "type": "uint256"
        },
        {
          "internalType": "uint256",
          "name": "h_cap",
          "type": "uint256"
        }
      ],
      "name": "createMiller",
      "outputs": [],
      "payable": false,
      "stateMutability": "nonpayable",
      "type": "function"
    },
    {
      "constant": false,
      "inputs": [
        {
          "internalType": "uint256",
          "name": "_pincode",
          "type": "uint256"
        }
      ],
      "name": "getMillersByPin",
      "outputs": [
        {
          "internalType": "address[]",
          "name": "",
          "type": "address[]"
        }
      ],
      "payable": false,
      "stateMutability": "nonpayable",
      "type": "function"
    },
    {
      "constant": false,
      "inputs": [
        {
          "internalType": "address",
          "name": "_address",
          "type": "address"
        }
      ],
      "name": "getMillersById",
      "outputs": [
        {
          "components": [
            {
              "internalType": "address payable",
              "name": "miller_id",
              "type": "address"
            },
            {
              "internalType": "string",
              "name": "name",
              "type": "string"
            },
            {
              "internalType": "uint256",
              "name": "pincode",
              "type": "uint256"
            },
            {
              "internalType": "uint256",
              "name": "aadhaarID",
              "type": "uint256"
            },
            {
              "internalType": "string",
              "name": "ipfsHash",
              "type": "string"
            },
            {
              "internalType": "bool",
              "name": "active",
              "type": "bool"
            },
            {
              "internalType": "string",
              "name": "mailID",
              "type": "string"
            },
            {
              "internalType": "string",
              "name": "phone",
              "type": "string"
            },
            {
              "internalType": "uint256",
              "name": "storage_cap",
              "type": "uint256"
            },
            {
              "internalType": "uint256",
              "name": "hulling_cap",
              "type": "uint256"
            }
          ],
          "internalType": "struct smartrat.miller",
          "name": "",
          "type": "tuple"
        }
      ],
      "payable": false,
      "stateMutability": "nonpayable",
      "type": "function"
    },
    {
      "constant": false,
      "inputs": [
        {
          "internalType": "address",
          "name": "_address",
          "type": "address"
        },
        {
          "internalType": "string",
          "name": "_name",
          "type": "string"
        },
        {
          "internalType": "uint256",
          "name": "_pincode",
          "type": "uint256"
        },
        {
          "internalType": "uint256",
          "name": "_aadharID",
          "type": "uint256"
        },
        {
          "internalType": "string",
          "name": "_ipfsHash",
          "type": "string"
        },
        {
          "internalType": "bool",
          "name": "_active",
          "type": "bool"
        },
        {
          "internalType": "string",
          "name": "_mail",
          "type": "string"
        },
        {
          "internalType": "string",
          "name": "_phone",
          "type": "string"
        }
      ],
      "name": "createDistributor",
      "outputs": [],
      "payable": false,
      "stateMutability": "nonpayable",
      "type": "function"
    },
    {
      "constant": false,
      "inputs": [
        {
          "internalType": "uint256",
          "name": "_pincode",
          "type": "uint256"
        }
      ],
      "name": "getDistributorsByPin",
      "outputs": [
        {
          "internalType": "address[]",
          "name": "",
          "type": "address[]"
        }
      ],
      "payable": false,
      "stateMutability": "nonpayable",
      "type": "function"
    },
    {
      "constant": false,
      "inputs": [
        {
          "internalType": "address",
          "name": "_address",
          "type": "address"
        }
      ],
      "name": "getDistributorsById",
      "outputs": [
        {
          "components": [
            {
              "internalType": "address",
              "name": "id",
              "type": "address"
            },
            {
              "internalType": "string",
              "name": "name",
              "type": "string"
            },
            {
              "internalType": "uint256",
              "name": "pincode",
              "type": "uint256"
            },
            {
              "internalType": "uint256",
              "name": "aadhaarID",
              "type": "uint256"
            },
            {
              "internalType": "string",
              "name": "ipfsHash",
              "type": "string"
            },
            {
              "internalType": "bool",
              "name": "active",
              "type": "bool"
            },
            {
              "internalType": "string",
              "name": "mailID",
              "type": "string"
            },
            {
              "internalType": "string",
              "name": "phone",
              "type": "string"
            }
          ],
          "internalType": "struct smartrat.distributor",
          "name": "",
          "type": "tuple"
        }
      ],
      "payable": false,
      "stateMutability": "nonpayable",
      "type": "function"
    }
  ],
  "bytecode": "0x608060405234801561001057600080fd5b50336000806101000a81548173ffffffffffffffffffffffffffffffffffffffff021916908373ffffffffffffffffffffffffffffffffffffffff160217905550615b7f80620000616000396000f3fe608060405234801561001057600080fd5b50600436106101a95760003560e01c80634b0ea913116100f9578063cc64278411610097578063da933e7011610071578063da933e70146105ab578063e3be0661146105e1578063f1ff4d0914610611578063f851a44014610641576101a9565b8063cc64278414610514578063d0d4acbf1461054b578063d3b894671461057b576101a9565b8063b0faca56116100d3578063b0faca5614610468578063b833419e14610498578063c4615bc5146104c8578063cb58f20e146104f8576101a9565b80634b0ea913146103ec5780634e5965ab1461041c5780639671d1ef14610438576101a9565b80632dca1fcc116101665780633b47c73e116101405780633b47c73e146103305780633d01df001461034c5780633df87e521461037c578063401b2168146103b5576101a9565b80632dca1fcc1461029257806336346877146102ca578063363a35b014610300576101a9565b806302e2c13c146101ae57806309faff42146101de5780630fba225f146101fa578063146a1dca1461022a5780631f58b48e146102465780632ac8252a14610262575b600080fd5b6101c860048036036101c39190810190614bdb565b61065f565b6040516101d591906153f1565b60405180910390f35b6101f860048036036101f39190810190614724565b6106aa565b005b610214600480360361020f91908101906145fd565b610aa6565b604051610221919061583a565b60405180910390f35b610244600480360361023f9190810190614626565b610df1565b005b610260600480360361025b9190810190614822565b6110b4565b005b61027c600480360361027791908101906145d4565b6114d4565b60405161028991906157f6565b60405180910390f35b6102ac60048036036102a791908101906145d4565b61183b565b6040516102c1999897969594939291906158a0565b60405180910390f35b6102e460048036036102df91908101906145d4565b6119e6565b6040516102f7979695949392919061540c565b60405180910390f35b61031a600480360361031591908101906145d4565b611ca8565b6040516103279190615818565b60405180910390f35b61034a60048036036103459190810190614a96565b61200f565b005b610366600480360361036191908101906145d4565b6126dd565b604051610373919061587e565b60405180910390f35b610396600480360361039191908101906145d4565b61291e565b6040516103ac9a99989796959493929190615531565b60405180910390f35b6103cf60048036036103ca91908101906145d4565b612bff565b6040516103e3989796959493929190615497565b60405180910390f35b61040660048036036104019190810190614b1f565b612ed4565b60405161041391906156f2565b60405180910390f35b61043660048036036104319190810190614948565b612f75565b005b610452600480360361044d9190810190614b1f565b613372565b60405161045f91906156f2565b60405180910390f35b610482600480360361047d9190810190614bdb565b613413565b60405161048f91906153f1565b60405180910390f35b6104b260048036036104ad9190810190614b1f565b61345e565b6040516104bf91906156f2565b60405180910390f35b6104e260048036036104dd9190810190614bdb565b6134ff565b6040516104ef91906153f1565b60405180910390f35b610512600480360361050d9190810190614b48565b61354a565b005b61052e600480360361052991908101906145d4565b613932565b604051610542989796959493929190615658565b60405180910390f35b610565600480360361056091908101906145d4565b613c07565b604051610572919061585c565b60405180910390f35b610595600480360361059091908101906145d4565b613f82565b6040516105a29190615714565b60405180910390f35b6105c560048036036105c09190810190614a5a565b6140fe565b6040516105d897969594939291906155e9565b60405180910390f35b6105fb60048036036105f69190810190614bdb565b61419a565b60405161060891906153f1565b60405180910390f35b61062b60048036036106269190810190614b1f565b6141e5565b60405161063891906156f2565b60405180910390f35b610649614286565b60405161065691906153f1565b60405180910390f35b6006602052816000526040600020818154811061067857fe5b906000526020600020016000915091509054906101000a900473ffffffffffffffffffffffffffffffffffffffff1681565b6000809054906101000a900473ffffffffffffffffffffffffffffffffffffffff1673ffffffffffffffffffffffffffffffffffffffff163373ffffffffffffffffffffffffffffffffffffffff16148061079257503373ffffffffffffffffffffffffffffffffffffffff16600460003373ffffffffffffffffffffffffffffffffffffffff1673ffffffffffffffffffffffffffffffffffffffff16815260200190815260200160002060000160009054906101000a900473ffffffffffffffffffffffffffffffffffffffff1673ffffffffffffffffffffffffffffffffffffffff16145b6107d1576040517f08c379a00000000000000000000000000000000000000000000000000000000081526004016107c8906157b6565b60405180910390fd5b8673ffffffffffffffffffffffffffffffffffffffff16600560008973ffffffffffffffffffffffffffffffffffffffff1673ffffffffffffffffffffffffffffffffffffffff16815260200190815260200160002060000160009054906101000a900473ffffffffffffffffffffffffffffffffffffffff1673ffffffffffffffffffffffffffffffffffffffff1614156108a2576040517f08c379a000000000000000000000000000000000000000000000000000000000815260040161089990615756565b60405180910390fd5b6040518061010001604052808873ffffffffffffffffffffffffffffffffffffffff16815260200187815260200186815260200185815260200184815260200160011515815260200183815260200182815250600560008973ffffffffffffffffffffffffffffffffffffffff1673ffffffffffffffffffffffffffffffffffffffff16815260200190815260200160002060008201518160000160006101000a81548173ffffffffffffffffffffffffffffffffffffffff021916908373ffffffffffffffffffffffffffffffffffffffff16021790555060208201518160010190805190602001906109979291906142ab565b50604082015181600201556060820151816003015560808201518160040190805190602001906109c89291906142ab565b5060a08201518160050160006101000a81548160ff02191690831515021790555060c0820151816006019080519060200190610a059291906142ab565b5060e0820151816007019080519060200190610a229291906142ab565b50905050600660008681526020019081526020016000208790806001815401808255809150509060018203906000526020600020016000909192909190916101000a81548173ffffffffffffffffffffffffffffffffffffffff021916908373ffffffffffffffffffffffffffffffffffffffff1602179055505050505050505050565b610aae61432b565b600460008373ffffffffffffffffffffffffffffffffffffffff1673ffffffffffffffffffffffffffffffffffffffff1681526020019081526020016000206040518060e00160405290816000820160009054906101000a900473ffffffffffffffffffffffffffffffffffffffff1673ffffffffffffffffffffffffffffffffffffffff1673ffffffffffffffffffffffffffffffffffffffff168152602001600182018054600181600116156101000203166002900480601f016020809104026020016040519081016040528092919081815260200182805460018160011615610100020316600290048015610be75780601f10610bbc57610100808354040283529160200191610be7565b820191906000526020600020905b815481529060010190602001808311610bca57829003601f168201915b5050505050815260200160028201548152602001600382018054600181600116156101000203166002900480601f016020809104026020016040519081016040528092919081815260200182805460018160011615610100020316600290048015610c935780601f10610c6857610100808354040283529160200191610c93565b820191906000526020600020905b815481529060010190602001808311610c7657829003601f168201915b50505050508152602001600482018054600181600116156101000203166002900480601f016020809104026020016040519081016040528092919081815260200182805460018160011615610100020316600290048015610d355780601f10610d0a57610100808354040283529160200191610d35565b820191906000526020600020905b815481529060010190602001808311610d1857829003601f168201915b5050505050815260200160058201548152602001600682018054600181600116156101000203166002900480601f016020809104026020016040519081016040528092919081815260200182805460018160011615610100020316600290048015610de15780601f10610db657610100808354040283529160200191610de1565b820191906000526020600020905b815481529060010190602001808311610dc457829003601f168201915b5050505050815250509050919050565b6000809054906101000a900473ffffffffffffffffffffffffffffffffffffffff1673ffffffffffffffffffffffffffffffffffffffff163373ffffffffffffffffffffffffffffffffffffffff1614610e80576040517f08c379a0000000000000000000000000000000000000000000000000000000008152600401610e77906157b6565b60405180910390fd5b8673ffffffffffffffffffffffffffffffffffffffff16600460008973ffffffffffffffffffffffffffffffffffffffff1673ffffffffffffffffffffffffffffffffffffffff16815260200190815260200160002060000160009054906101000a900473ffffffffffffffffffffffffffffffffffffffff1673ffffffffffffffffffffffffffffffffffffffff161415610f51576040517f08c379a0000000000000000000000000000000000000000000000000000000008152600401610f4890615776565b60405180910390fd5b6040518060e001604052808873ffffffffffffffffffffffffffffffffffffffff16815260200187815260200186815260200185815260200184815260200182815260200183815250600460008973ffffffffffffffffffffffffffffffffffffffff1673ffffffffffffffffffffffffffffffffffffffff16815260200190815260200160002060008201518160000160006101000a81548173ffffffffffffffffffffffffffffffffffffffff021916908373ffffffffffffffffffffffffffffffffffffffff160217905550602082015181600101908051906020019061103c9291906142ab565b506040820151816002015560608201518160030190805190602001906110639291906142ab565b5060808201518160040190805190602001906110809291906142ab565b5060a0820151816005015560c08201518160060190805190602001906110a79291906142ab565b5090505050505050505050565b6000809054906101000a900473ffffffffffffffffffffffffffffffffffffffff1673ffffffffffffffffffffffffffffffffffffffff163373ffffffffffffffffffffffffffffffffffffffff16148061119c5750600460003373ffffffffffffffffffffffffffffffffffffffff1673ffffffffffffffffffffffffffffffffffffffff16815260200190815260200160002060000160009054906101000a900473ffffffffffffffffffffffffffffffffffffffff1673ffffffffffffffffffffffffffffffffffffffff163373ffffffffffffffffffffffffffffffffffffffff16145b6111db576040517f08c379a00000000000000000000000000000000000000000000000000000000081526004016111d2906157b6565b60405180910390fd5b8873ffffffffffffffffffffffffffffffffffffffff16600760008b73ffffffffffffffffffffffffffffffffffffffff1673ffffffffffffffffffffffffffffffffffffffff16815260200190815260200160002060000160009054906101000a900473ffffffffffffffffffffffffffffffffffffffff1673ffffffffffffffffffffffffffffffffffffffff1614156112ac576040517f08c379a00000000000000000000000000000000000000000000000000000000081526004016112a390615796565b60405180910390fd5b6040518061014001604052808a73ffffffffffffffffffffffffffffffffffffffff16815260200189815260200188815260200187815260200186815260200160011515815260200185815260200184815260200183815260200182815250600760008b73ffffffffffffffffffffffffffffffffffffffff1673ffffffffffffffffffffffffffffffffffffffff16815260200190815260200160002060008201518160000160006101000a81548173ffffffffffffffffffffffffffffffffffffffff021916908373ffffffffffffffffffffffffffffffffffffffff16021790555060208201518160010190805190602001906113ad9291906142ab565b50604082015181600201556060820151816003015560808201518160040190805190602001906113de9291906142ab565b5060a08201518160050160006101000a81548160ff02191690831515021790555060c082015181600601908051906020019061141b9291906142ab565b5060e08201518160070190805190602001906114389291906142ab565b5061010082015181600801556101208201518160090155905050600860008881526020019081526020016000208990806001815401808255809150509060018203906000526020600020016000909192909190916101000a81548173ffffffffffffffffffffffffffffffffffffffff021916908373ffffffffffffffffffffffffffffffffffffffff16021790555050505050505050505050565b6114dc61437e565b600960008373ffffffffffffffffffffffffffffffffffffffff1673ffffffffffffffffffffffffffffffffffffffff168152602001908152602001600020604051806101000160405290816000820160009054906101000a900473ffffffffffffffffffffffffffffffffffffffff1673ffffffffffffffffffffffffffffffffffffffff1673ffffffffffffffffffffffffffffffffffffffff168152602001600182018054600181600116156101000203166002900480601f0160208091040260200160405190810160405280929190818152602001828054600181600116156101000203166002900480156116165780601f106115eb57610100808354040283529160200191611616565b820191906000526020600020905b8154815290600101906020018083116115f957829003601f168201915b505050505081526020016002820154815260200160038201548152602001600482018054600181600116156101000203166002900480601f0160208091040260200160405190810160405280929190818152602001828054600181600116156101000203166002900480156116cc5780601f106116a1576101008083540402835291602001916116cc565b820191906000526020600020905b8154815290600101906020018083116116af57829003601f168201915b505050505081526020016005820160009054906101000a900460ff16151515158152602001600682018054600181600116156101000203166002900480601f0160208091040260200160405190810160405280929190818152602001828054600181600116156101000203166002900480156117895780601f1061175e57610100808354040283529160200191611789565b820191906000526020600020905b81548152906001019060200180831161176c57829003601f168201915b50505050508152602001600782018054600181600116156101000203166002900480601f01602080910402602001604051908101604052809291908181526020018280546001816001161561010002031660029004801561182b5780601f106118005761010080835404028352916020019161182b565b820191906000526020600020905b81548152906001019060200180831161180e57829003601f168201915b5050505050815250509050919050565b60016020528060005260406000206000915090508060000154908060010160009054906101000a900473ffffffffffffffffffffffffffffffffffffffff16908060010160149054906101000a900460ff1690806002018054600181600116156101000203166002900480601f0160208091040260200160405190810160405280929190818152602001828054600181600116156101000203166002900480156119265780601f106118fb57610100808354040283529160200191611926565b820191906000526020600020905b81548152906001019060200180831161190957829003601f168201915b505050505090806003018054600181600116156101000203166002900480601f0160208091040260200160405190810160405280929190818152602001828054600181600116156101000203166002900480156119c45780601f10611999576101008083540402835291602001916119c4565b820191906000526020600020905b8154815290600101906020018083116119a757829003601f168201915b5050505050908060040154908060050154908060060154908060070154905089565b60046020528060005260406000206000915090508060000160009054906101000a900473ffffffffffffffffffffffffffffffffffffffff1690806001018054600181600116156101000203166002900480601f016020809104026020016040519081016040528092919081815260200182805460018160011615610100020316600290048015611ab85780601f10611a8d57610100808354040283529160200191611ab8565b820191906000526020600020905b815481529060010190602001808311611a9b57829003601f168201915b505050505090806002015490806003018054600181600116156101000203166002900480601f016020809104026020016040519081016040528092919081815260200182805460018160011615610100020316600290048015611b5c5780601f10611b3157610100808354040283529160200191611b5c565b820191906000526020600020905b815481529060010190602001808311611b3f57829003601f168201915b505050505090806004018054600181600116156101000203166002900480601f016020809104026020016040519081016040528092919081815260200182805460018160011615610100020316600290048015611bfa5780601f10611bcf57610100808354040283529160200191611bfa565b820191906000526020600020905b815481529060010190602001808311611bdd57829003601f168201915b505050505090806005015490806006018054600181600116156101000203166002900480601f016020809104026020016040519081016040528092919081815260200182805460018160011615610100020316600290048015611c9e5780601f10611c7357610100808354040283529160200191611c9e565b820191906000526020600020905b815481529060010190602001808311611c8157829003601f168201915b5050505050905087565b611cb06143db565b600560008373ffffffffffffffffffffffffffffffffffffffff1673ffffffffffffffffffffffffffffffffffffffff168152602001908152602001600020604051806101000160405290816000820160009054906101000a900473ffffffffffffffffffffffffffffffffffffffff1673ffffffffffffffffffffffffffffffffffffffff1673ffffffffffffffffffffffffffffffffffffffff168152602001600182018054600181600116156101000203166002900480601f016020809104026020016040519081016040528092919081815260200182805460018160011615610100020316600290048015611dea5780601f10611dbf57610100808354040283529160200191611dea565b820191906000526020600020905b815481529060010190602001808311611dcd57829003601f168201915b505050505081526020016002820154815260200160038201548152602001600482018054600181600116156101000203166002900480601f016020809104026020016040519081016040528092919081815260200182805460018160011615610100020316600290048015611ea05780601f10611e7557610100808354040283529160200191611ea0565b820191906000526020600020905b815481529060010190602001808311611e8357829003601f168201915b505050505081526020016005820160009054906101000a900460ff16151515158152602001600682018054600181600116156101000203166002900480601f016020809104026020016040519081016040528092919081815260200182805460018160011615610100020316600290048015611f5d5780601f10611f3257610100808354040283529160200191611f5d565b820191906000526020600020905b815481529060010190602001808311611f4057829003601f168201915b50505050508152602001600782018054600181600116156101000203166002900480601f016020809104026020016040519081016040528092919081815260200182805460018160011615610100020316600290048015611fff5780601f10611fd457610100808354040283529160200191611fff565b820191906000526020600020905b815481529060010190602001808311611fe257829003601f168201915b5050505050815250509050919050565b600260003373ffffffffffffffffffffffffffffffffffffffff1673ffffffffffffffffffffffffffffffffffffffff1681526020019081526020016000206040518060e001604052803373ffffffffffffffffffffffffffffffffffffffff1681526020018873ffffffffffffffffffffffffffffffffffffffff168152602001878152602001868152602001858152602001848152602001838152509080600181540180825580915050906001820390600052602060002090600702016000909192909190915060008201518160000160006101000a81548173ffffffffffffffffffffffffffffffffffffffff021916908373ffffffffffffffffffffffffffffffffffffffff16021790555060208201518160010160006101000a81548173ffffffffffffffffffffffffffffffffffffffff021916908373ffffffffffffffffffffffffffffffffffffffff16021790555060408201518160020155606082015181600301556080820151816004015560a0820151816005015560c08201518160060155505050600260008773ffffffffffffffffffffffffffffffffffffffff1673ffffffffffffffffffffffffffffffffffffffff1681526020019081526020016000206040518060e001604052803373ffffffffffffffffffffffffffffffffffffffff1681526020018873ffffffffffffffffffffffffffffffffffffffff168152602001878152602001868152602001858152602001848152602001838152509080600181540180825580915050906001820390600052602060002090600702016000909192909190915060008201518160000160006101000a81548173ffffffffffffffffffffffffffffffffffffffff021916908373ffffffffffffffffffffffffffffffffffffffff16021790555060208201518160010160006101000a81548173ffffffffffffffffffffffffffffffffffffffff021916908373ffffffffffffffffffffffffffffffffffffffff16021790555060408201518160020155606082015181600301556080820151816004015560a0820151816005015560c082015181600601555050503373ffffffffffffffffffffffffffffffffffffffff16600160003373ffffffffffffffffffffffffffffffffffffffff1673ffffffffffffffffffffffffffffffffffffffff16815260200190815260200160002060010160009054906101000a900473ffffffffffffffffffffffffffffffffffffffff1673ffffffffffffffffffffffffffffffffffffffff1614156124fe5783600160003373ffffffffffffffffffffffffffffffffffffffff1673ffffffffffffffffffffffffffffffffffffffff1681526020019081526020016000206004016000828254039250508190555082600160003373ffffffffffffffffffffffffffffffffffffffff1673ffffffffffffffffffffffffffffffffffffffff1681526020019081526020016000206005016000828254039250508190555081600160003373ffffffffffffffffffffffffffffffffffffffff1673ffffffffffffffffffffffffffffffffffffffff1681526020019081526020016000206006016000828254039250508190555080600160003373ffffffffffffffffffffffffffffffffffffffff1673ffffffffffffffffffffffffffffffffffffffff168152602001908152602001600020600701600082825403925050819055505b8573ffffffffffffffffffffffffffffffffffffffff16600160008873ffffffffffffffffffffffffffffffffffffffff1673ffffffffffffffffffffffffffffffffffffffff16815260200190815260200160002060010160009054906101000a900473ffffffffffffffffffffffffffffffffffffffff1673ffffffffffffffffffffffffffffffffffffffff1614156126d55783600160008873ffffffffffffffffffffffffffffffffffffffff1673ffffffffffffffffffffffffffffffffffffffff1681526020019081526020016000206004016000828254019250508190555082600160008873ffffffffffffffffffffffffffffffffffffffff1673ffffffffffffffffffffffffffffffffffffffff1681526020019081526020016000206005016000828254019250508190555081600160008873ffffffffffffffffffffffffffffffffffffffff1673ffffffffffffffffffffffffffffffffffffffff1681526020019081526020016000206006016000828254019250508190555080600160008873ffffffffffffffffffffffffffffffffffffffff1673ffffffffffffffffffffffffffffffffffffffff168152602001908152602001600020600701600082825401925050819055505b505050505050565b6126e5614438565b600160008373ffffffffffffffffffffffffffffffffffffffff1673ffffffffffffffffffffffffffffffffffffffff16815260200190815260200160002060405180610120016040529081600082015481526020016001820160009054906101000a900473ffffffffffffffffffffffffffffffffffffffff1673ffffffffffffffffffffffffffffffffffffffff1673ffffffffffffffffffffffffffffffffffffffff1681526020016001820160149054906101000a900460ff16151515158152602001600282018054600181600116156101000203166002900480601f0160208091040260200160405190810160405280929190818152602001828054600181600116156101000203166002900480156128445780601f1061281957610100808354040283529160200191612844565b820191906000526020600020905b81548152906001019060200180831161282757829003601f168201915b50505050508152602001600382018054600181600116156101000203166002900480601f0160208091040260200160405190810160405280929190818152602001828054600181600116156101000203166002900480156128e65780601f106128bb576101008083540402835291602001916128e6565b820191906000526020600020905b8154815290600101906020018083116128c957829003601f168201915b505050505081526020016004820154815260200160058201548152602001600682015481526020016007820154815250509050919050565b60076020528060005260406000206000915090508060000160009054906101000a900473ffffffffffffffffffffffffffffffffffffffff1690806001018054600181600116156101000203166002900480601f0160208091040260200160405190810160405280929190818152602001828054600181600116156101000203166002900480156129f05780601f106129c5576101008083540402835291602001916129f0565b820191906000526020600020905b8154815290600101906020018083116129d357829003601f168201915b505050505090806002015490806003015490806004018054600181600116156101000203166002900480601f016020809104026020016040519081016040528092919081815260200182805460018160011615610100020316600290048015612a9a5780601f10612a6f57610100808354040283529160200191612a9a565b820191906000526020600020905b815481529060010190602001808311612a7d57829003601f168201915b5050505050908060050160009054906101000a900460ff1690806006018054600181600116156101000203166002900480601f016020809104026020016040519081016040528092919081815260200182805460018160011615610100020316600290048015612b4b5780601f10612b2057610100808354040283529160200191612b4b565b820191906000526020600020905b815481529060010190602001808311612b2e57829003601f168201915b505050505090806007018054600181600116156101000203166002900480601f016020809104026020016040519081016040528092919081815260200182805460018160011615610100020316600290048015612be95780601f10612bbe57610100808354040283529160200191612be9565b820191906000526020600020905b815481529060010190602001808311612bcc57829003601f168201915b505050505090806008015490806009015490508a565b60056020528060005260406000206000915090508060000160009054906101000a900473ffffffffffffffffffffffffffffffffffffffff1690806001018054600181600116156101000203166002900480601f016020809104026020016040519081016040528092919081815260200182805460018160011615610100020316600290048015612cd15780601f10612ca657610100808354040283529160200191612cd1565b820191906000526020600020905b815481529060010190602001808311612cb457829003601f168201915b505050505090806002015490806003015490806004018054600181600116156101000203166002900480601f016020809104026020016040519081016040528092919081815260200182805460018160011615610100020316600290048015612d7b5780601f10612d5057610100808354040283529160200191612d7b565b820191906000526020600020905b815481529060010190602001808311612d5e57829003601f168201915b5050505050908060050160009054906101000a900460ff1690806006018054600181600116156101000203166002900480601f016020809104026020016040519081016040528092919081815260200182805460018160011615610100020316600290048015612e2c5780601f10612e0157610100808354040283529160200191612e2c565b820191906000526020600020905b815481529060010190602001808311612e0f57829003601f168201915b505050505090806007018054600181600116156101000203166002900480601f016020809104026020016040519081016040528092919081815260200182805460018160011615610100020316600290048015612eca5780601f10612e9f57610100808354040283529160200191612eca565b820191906000526020600020905b815481529060010190602001808311612ead57829003601f168201915b5050505050905088565b6060600a6000838152602001908152602001600020805480602002602001604051908101604052809291908181526020018280548015612f6957602002820191906000526020600020905b8160009054906101000a900473ffffffffffffffffffffffffffffffffffffffff1673ffffffffffffffffffffffffffffffffffffffff1681526020019060010190808311612f1f575b50505050509050919050565b6000809054906101000a900473ffffffffffffffffffffffffffffffffffffffff1673ffffffffffffffffffffffffffffffffffffffff163373ffffffffffffffffffffffffffffffffffffffff16148061305d5750600460003373ffffffffffffffffffffffffffffffffffffffff1673ffffffffffffffffffffffffffffffffffffffff16815260200190815260200160002060000160009054906101000a900473ffffffffffffffffffffffffffffffffffffffff1673ffffffffffffffffffffffffffffffffffffffff163373ffffffffffffffffffffffffffffffffffffffff16145b61309c576040517f08c379a0000000000000000000000000000000000000000000000000000000008152600401613093906157b6565b60405180910390fd5b8773ffffffffffffffffffffffffffffffffffffffff16600960008a73ffffffffffffffffffffffffffffffffffffffff1673ffffffffffffffffffffffffffffffffffffffff16815260200190815260200160002060000160009054906101000a900473ffffffffffffffffffffffffffffffffffffffff1673ffffffffffffffffffffffffffffffffffffffff16141561316d576040517f08c379a0000000000000000000000000000000000000000000000000000000008152600401613164906157d6565b60405180910390fd5b6040518061010001604052808973ffffffffffffffffffffffffffffffffffffffff16815260200188815260200187815260200186815260200185815260200160011515815260200183815260200182815250600960008a73ffffffffffffffffffffffffffffffffffffffff1673ffffffffffffffffffffffffffffffffffffffff16815260200190815260200160002060008201518160000160006101000a81548173ffffffffffffffffffffffffffffffffffffffff021916908373ffffffffffffffffffffffffffffffffffffffff16021790555060208201518160010190805190602001906132629291906142ab565b50604082015181600201556060820151816003015560808201518160040190805190602001906132939291906142ab565b5060a08201518160050160006101000a81548160ff02191690831515021790555060c08201518160060190805190602001906132d09291906142ab565b5060e08201518160070190805190602001906132ed9291906142ab565b50905050600a60008781526020019081526020016000208890806001815401808255809150509060018203906000526020600020016000909192909190916101000a81548173ffffffffffffffffffffffffffffffffffffffff021916908373ffffffffffffffffffffffffffffffffffffffff160217905550505050505050505050565b60606008600083815260200190815260200160002080548060200260200160405190810160405280929190818152602001828054801561340757602002820191906000526020600020905b8160009054906101000a900473ffffffffffffffffffffffffffffffffffffffff1673ffffffffffffffffffffffffffffffffffffffff16815260200190600101908083116133bd575b50505050509050919050565b6003602052816000526040600020818154811061342c57fe5b906000526020600020016000915091509054906101000a900473ffffffffffffffffffffffffffffffffffffffff1681565b6060600660008381526020019081526020016000208054806020026020016040519081016040528092919081815260200182805480156134f357602002820191906000526020600020905b8160009054906101000a900473ffffffffffffffffffffffffffffffffffffffff1673ffffffffffffffffffffffffffffffffffffffff16815260200190600101908083116134a9575b50505050509050919050565b600a602052816000526040600020818154811061351857fe5b906000526020600020016000915091509054906101000a900473ffffffffffffffffffffffffffffffffffffffff1681565b6000809054906101000a900473ffffffffffffffffffffffffffffffffffffffff1673ffffffffffffffffffffffffffffffffffffffff163373ffffffffffffffffffffffffffffffffffffffff1614806136325750600460003373ffffffffffffffffffffffffffffffffffffffff1673ffffffffffffffffffffffffffffffffffffffff16815260200190815260200160002060000160009054906101000a900473ffffffffffffffffffffffffffffffffffffffff1673ffffffffffffffffffffffffffffffffffffffff163373ffffffffffffffffffffffffffffffffffffffff16145b613671576040517f08c379a0000000000000000000000000000000000000000000000000000000008152600401613668906157b6565b60405180910390fd5b600073ffffffffffffffffffffffffffffffffffffffff16600160008573ffffffffffffffffffffffffffffffffffffffff1673ffffffffffffffffffffffffffffffffffffffff16815260200190815260200160002060010160009054906101000a900473ffffffffffffffffffffffffffffffffffffffff1673ffffffffffffffffffffffffffffffffffffffff1614613742576040517f08c379a000000000000000000000000000000000000000000000000000000000815260040161373990615736565b60405180910390fd5b6040518061012001604052808581526020018473ffffffffffffffffffffffffffffffffffffffff1681526020016001151581526020018381526020018281526020016000815260200160008152602001600081526020016000815250600160008573ffffffffffffffffffffffffffffffffffffffff1673ffffffffffffffffffffffffffffffffffffffff1681526020019081526020016000206000820151816000015560208201518160010160006101000a81548173ffffffffffffffffffffffffffffffffffffffff021916908373ffffffffffffffffffffffffffffffffffffffff16021790555060408201518160010160146101000a81548160ff021916908315150217905550606082015181600201908051906020019061386b9291906142ab565b5060808201518160030190805190602001906138889291906142ab565b5060a0820151816004015560c0820151816005015560e082015181600601556101008201518160070155905050600360008581526020019081526020016000208390806001815401808255809150509060018203906000526020600020016000909192909190916101000a81548173ffffffffffffffffffffffffffffffffffffffff021916908373ffffffffffffffffffffffffffffffffffffffff1602179055505050505050565b60096020528060005260406000206000915090508060000160009054906101000a900473ffffffffffffffffffffffffffffffffffffffff1690806001018054600181600116156101000203166002900480601f016020809104026020016040519081016040528092919081815260200182805460018160011615610100020316600290048015613a045780601f106139d957610100808354040283529160200191613a04565b820191906000526020600020905b8154815290600101906020018083116139e757829003601f168201915b505050505090806002015490806003015490806004018054600181600116156101000203166002900480601f016020809104026020016040519081016040528092919081815260200182805460018160011615610100020316600290048015613aae5780601f10613a8357610100808354040283529160200191613aae565b820191906000526020600020905b815481529060010190602001808311613a9157829003601f168201915b5050505050908060050160009054906101000a900460ff1690806006018054600181600116156101000203166002900480601f016020809104026020016040519081016040528092919081815260200182805460018160011615610100020316600290048015613b5f5780601f10613b3457610100808354040283529160200191613b5f565b820191906000526020600020905b815481529060010190602001808311613b4257829003601f168201915b505050505090806007018054600181600116156101000203166002900480601f016020809104026020016040519081016040528092919081815260200182805460018160011615610100020316600290048015613bfd5780601f10613bd257610100808354040283529160200191613bfd565b820191906000526020600020905b815481529060010190602001808311613be057829003601f168201915b5050505050905088565b613c0f61449c565b600760008373ffffffffffffffffffffffffffffffffffffffff1673ffffffffffffffffffffffffffffffffffffffff168152602001908152602001600020604051806101400160405290816000820160009054906101000a900473ffffffffffffffffffffffffffffffffffffffff1673ffffffffffffffffffffffffffffffffffffffff1673ffffffffffffffffffffffffffffffffffffffff168152602001600182018054600181600116156101000203166002900480601f016020809104026020016040519081016040528092919081815260200182805460018160011615610100020316600290048015613d495780601f10613d1e57610100808354040283529160200191613d49565b820191906000526020600020905b815481529060010190602001808311613d2c57829003601f168201915b505050505081526020016002820154815260200160038201548152602001600482018054600181600116156101000203166002900480601f016020809104026020016040519081016040528092919081815260200182805460018160011615610100020316600290048015613dff5780601f10613dd457610100808354040283529160200191613dff565b820191906000526020600020905b815481529060010190602001808311613de257829003601f168201915b505050505081526020016005820160009054906101000a900460ff16151515158152602001600682018054600181600116156101000203166002900480601f016020809104026020016040519081016040528092919081815260200182805460018160011615610100020316600290048015613ebc5780601f10613e9157610100808354040283529160200191613ebc565b820191906000526020600020905b815481529060010190602001808311613e9f57829003601f168201915b50505050508152602001600782018054600181600116156101000203166002900480601f016020809104026020016040519081016040528092919081815260200182805460018160011615610100020316600290048015613f5e5780601f10613f3357610100808354040283529160200191613f5e565b820191906000526020600020905b815481529060010190602001808311613f4157829003601f168201915b50505050508152602001600882015481526020016009820154815250509050919050565b6060600260008373ffffffffffffffffffffffffffffffffffffffff1673ffffffffffffffffffffffffffffffffffffffff168152602001908152602001600020805480602002602001604051908101604052809291908181526020016000905b828210156140f357838290600052602060002090600702016040518060e00160405290816000820160009054906101000a900473ffffffffffffffffffffffffffffffffffffffff1673ffffffffffffffffffffffffffffffffffffffff1673ffffffffffffffffffffffffffffffffffffffff1681526020016001820160009054906101000a900473ffffffffffffffffffffffffffffffffffffffff1673ffffffffffffffffffffffffffffffffffffffff1673ffffffffffffffffffffffffffffffffffffffff1681526020016002820154815260200160038201548152602001600482015481526020016005820154815260200160068201548152505081526020019060010190613fe3565b505050509050919050565b6002602052816000526040600020818154811061411757fe5b9060005260206000209060070201600091509150508060000160009054906101000a900473ffffffffffffffffffffffffffffffffffffffff16908060010160009054906101000a900473ffffffffffffffffffffffffffffffffffffffff16908060020154908060030154908060040154908060050154908060060154905087565b600860205281600052604060002081815481106141b357fe5b906000526020600020016000915091509054906101000a900473ffffffffffffffffffffffffffffffffffffffff1681565b60606003600083815260200190815260200160002080548060200260200160405190810160405280929190818152602001828054801561427a57602002820191906000526020600020905b8160009054906101000a900473ffffffffffffffffffffffffffffffffffffffff1673ffffffffffffffffffffffffffffffffffffffff1681526020019060010190808311614230575b50505050509050919050565b6000809054906101000a900473ffffffffffffffffffffffffffffffffffffffff1681565b828054600181600116156101000203166002900490600052602060002090601f016020900481019282601f106142ec57805160ff191683800117855561431a565b8280016001018555821561431a579182015b828111156143195782518255916020019190600101906142fe565b5b5090506143279190614507565b5090565b6040518060e00160405280600073ffffffffffffffffffffffffffffffffffffffff1681526020016060815260200160008152602001606081526020016060815260200160008152602001606081525090565b604051806101000160405280600073ffffffffffffffffffffffffffffffffffffffff1681526020016060815260200160008152602001600081526020016060815260200160001515815260200160608152602001606081525090565b604051806101000160405280600073ffffffffffffffffffffffffffffffffffffffff1681526020016060815260200160008152602001600081526020016060815260200160001515815260200160608152602001606081525090565b60405180610120016040528060008152602001600073ffffffffffffffffffffffffffffffffffffffff1681526020016000151581526020016060815260200160608152602001600081526020016000815260200160008152602001600081525090565b604051806101400160405280600073ffffffffffffffffffffffffffffffffffffffff16815260200160608152602001600081526020016000815260200160608152602001600015158152602001606081526020016060815260200160008152602001600081525090565b61452991905b8082111561452557600081600090555060010161450d565b5090565b90565b60008135905061453b81615ae0565b92915050565b60008135905061455081615af7565b92915050565b60008135905061456581615b0e565b92915050565b600082601f83011261457c57600080fd5b813561458f61458a82615968565b61593b565b915080825260208301602083018583830111156145ab57600080fd5b6145b6838284615a8d565b50505092915050565b6000813590506145ce81615b25565b92915050565b6000602082840312156145e657600080fd5b60006145f48482850161452c565b91505092915050565b60006020828403121561460f57600080fd5b600061461d84828501614541565b91505092915050565b600080600080600080600060e0888a03121561464157600080fd5b600061464f8a828b01614541565b975050602088013567ffffffffffffffff81111561466c57600080fd5b6146788a828b0161456b565b96505060406146898a828b016145bf565b955050606088013567ffffffffffffffff8111156146a657600080fd5b6146b28a828b0161456b565b945050608088013567ffffffffffffffff8111156146cf57600080fd5b6146db8a828b0161456b565b93505060a088013567ffffffffffffffff8111156146f857600080fd5b6147048a828b0161456b565b92505060c06147158a828b016145bf565b91505092959891949750929550565b600080600080600080600060e0888a03121561473f57600080fd5b600061474d8a828b01614541565b975050602088013567ffffffffffffffff81111561476a57600080fd5b6147768a828b0161456b565b96505060406147878a828b016145bf565b95505060606147988a828b016145bf565b945050608088013567ffffffffffffffff8111156147b557600080fd5b6147c18a828b0161456b565b93505060a088013567ffffffffffffffff8111156147de57600080fd5b6147ea8a828b0161456b565b92505060c088013567ffffffffffffffff81111561480757600080fd5b6148138a828b0161456b565b91505092959891949750929550565b60008060008060008060008060006101208a8c03121561484157600080fd5b600061484f8c828d01614541565b99505060208a013567ffffffffffffffff81111561486c57600080fd5b6148788c828d0161456b565b98505060406148898c828d016145bf565b975050606061489a8c828d016145bf565b96505060808a013567ffffffffffffffff8111156148b757600080fd5b6148c38c828d0161456b565b95505060a08a013567ffffffffffffffff8111156148e057600080fd5b6148ec8c828d0161456b565b94505060c08a013567ffffffffffffffff81111561490957600080fd5b6149158c828d0161456b565b93505060e06149268c828d016145bf565b9250506101006149388c828d016145bf565b9150509295985092959850929598565b600080600080600080600080610100898b03121561496557600080fd5b60006149738b828c0161452c565b985050602089013567ffffffffffffffff81111561499057600080fd5b61499c8b828c0161456b565b97505060406149ad8b828c016145bf565b96505060606149be8b828c016145bf565b955050608089013567ffffffffffffffff8111156149db57600080fd5b6149e78b828c0161456b565b94505060a06149f88b828c01614556565b93505060c089013567ffffffffffffffff811115614a1557600080fd5b614a218b828c0161456b565b92505060e089013567ffffffffffffffff811115614a3e57600080fd5b614a4a8b828c0161456b565b9150509295985092959890939650565b60008060408385031215614a6d57600080fd5b6000614a7b8582860161452c565b9250506020614a8c858286016145bf565b9150509250929050565b60008060008060008060c08789031215614aaf57600080fd5b6000614abd89828a0161452c565b9650506020614ace89828a016145bf565b9550506040614adf89828a016145bf565b9450506060614af089828a016145bf565b9350506080614b0189828a016145bf565b92505060a0614b1289828a016145bf565b9150509295509295509295565b600060208284031215614b3157600080fd5b6000614b3f848285016145bf565b91505092915050565b60008060008060808587031215614b5e57600080fd5b6000614b6c878288016145bf565b9450506020614b7d87828801614541565b935050604085013567ffffffffffffffff811115614b9a57600080fd5b614ba68782880161456b565b925050606085013567ffffffffffffffff811115614bc357600080fd5b614bcf8782880161456b565b91505092959194509250565b60008060408385031215614bee57600080fd5b6000614bfc858286016145bf565b9250506020614c0d858286016145bf565b9150509250929050565b6000614c238383614c65565b60208301905092915050565b6000614c3b83836150d9565b60e08301905092915050565b614c5081615a45565b82525050565b614c5f81615a45565b82525050565b614c6e81615a33565b82525050565b614c7d81615a33565b82525050565b6000614c8e826159b4565b614c9881856159ef565b9350614ca383615994565b8060005b83811015614cd4578151614cbb8882614c17565b9750614cc6836159d5565b925050600181019050614ca7565b5085935050505092915050565b6000614cec826159bf565b614cf68185615a00565b9350614d01836159a4565b8060005b83811015614d32578151614d198882614c2f565b9750614d24836159e2565b925050600181019050614d05565b5085935050505092915050565b614d4881615a57565b82525050565b614d5781615a57565b82525050565b6000614d68826159ca565b614d728185615a11565b9350614d82818560208601615a9c565b614d8b81615acf565b840191505092915050565b6000614da1826159ca565b614dab8185615a22565b9350614dbb818560208601615a9c565b614dc481615acf565b840191505092915050565b6000614ddc601283615a22565b91507f53686f7020616c726561647920657869737400000000000000000000000000006000830152602082019050919050565b6000614e1c601983615a22565b91507f4661726d657220616c72656164792072656769737465726564000000000000006000830152602082019050919050565b6000614e5c601983615a22565b91507f4c6f63616c2041646d696e20616c7265616479206578697374000000000000006000830152602082019050919050565b6000614e9c601983615a22565b91507f4d696c6c657220616c72656164792072656769737465726564000000000000006000830152602082019050919050565b6000614edc600983615a22565b91507f466f7262696464656e00000000000000000000000000000000000000000000006000830152602082019050919050565b6000614f1c601e83615a22565b91507f4469737472696275746f7220616c7265616479207265676973746572656400006000830152602082019050919050565b600061010083016000830151614f686000860182614c65565b5060208301518482036020860152614f808282614d5d565b9150506040830151614f9560408601826153d3565b506060830151614fa860608601826153d3565b5060808301518482036080860152614fc08282614d5d565b91505060a0830151614fd560a0860182614d3f565b5060c083015184820360c0860152614fed8282614d5d565b91505060e083015184820360e08601526150078282614d5d565b9150508091505092915050565b60006101008301600083015161502d6000860182614c47565b50602083015184820360208601526150458282614d5d565b915050604083015161505a60408601826153d3565b50606083015161506d60608601826153d3565b50608083015184820360808601526150858282614d5d565b91505060a083015161509a60a0860182614d3f565b5060c083015184820360c08601526150b28282614d5d565b91505060e083015184820360e08601526150cc8282614d5d565b9150508091505092915050565b60e0820160008201516150ef6000850182614c65565b5060208201516151026020850182614c65565b50604082015161511560408501826153d3565b50606082015161512860608501826153d3565b50608082015161513b60808501826153d3565b5060a082015161514e60a08501826153d3565b5060c082015161516160c08501826153d3565b50505050565b600060e08301600083015161517f6000860182614c47565b50602083015184820360208601526151978282614d5d565b91505060408301516151ac60408601826153d3565b50606083015184820360608601526151c48282614d5d565b915050608083015184820360808601526151de8282614d5d565b91505060a08301516151f360a08601826153d3565b5060c083015184820360c086015261520b8282614d5d565b9150508091505092915050565b6000610140830160008301516152316000860182614c47565b50602083015184820360208601526152498282614d5d565b915050604083015161525e60408601826153d3565b50606083015161527160608601826153d3565b50608083015184820360808601526152898282614d5d565b91505060a083015161529e60a0860182614d3f565b5060c083015184820360c08601526152b68282614d5d565b91505060e083015184820360e08601526152d08282614d5d565b9150506101008301516152e76101008601826153d3565b506101208301516152fc6101208601826153d3565b508091505092915050565b60006101208301600083015161532060008601826153d3565b5060208301516153336020860182614c65565b5060408301516153466040860182614d3f565b506060830151848203606086015261535e8282614d5d565b915050608083015184820360808601526153788282614d5d565b91505060a083015161538d60a08601826153d3565b5060c08301516153a060c08601826153d3565b5060e08301516153b360e08601826153d3565b506101008301516153c86101008601826153d3565b508091505092915050565b6153dc81615a83565b82525050565b6153eb81615a83565b82525050565b60006020820190506154066000830184614c74565b92915050565b600060e082019050615421600083018a614c56565b81810360208301526154338189614d96565b905061544260408301886153e2565b81810360608301526154548187614d96565b905081810360808301526154688186614d96565b905061547760a08301856153e2565b81810360c08301526154898184614d96565b905098975050505050505050565b6000610100820190506154ad600083018b614c56565b81810360208301526154bf818a614d96565b90506154ce60408301896153e2565b6154db60608301886153e2565b81810360808301526154ed8187614d96565b90506154fc60a0830186614d4e565b81810360c083015261550e8185614d96565b905081810360e08301526155228184614d96565b90509998505050505050505050565b600061014082019050615547600083018d614c56565b8181036020830152615559818c614d96565b9050615568604083018b6153e2565b615575606083018a6153e2565b81810360808301526155878189614d96565b905061559660a0830188614d4e565b81810360c08301526155a88187614d96565b905081810360e08301526155bc8186614d96565b90506155cc6101008301856153e2565b6155da6101208301846153e2565b9b9a5050505050505050505050565b600060e0820190506155fe600083018a614c74565b61560b6020830189614c74565b61561860408301886153e2565b61562560608301876153e2565b61563260808301866153e2565b61563f60a08301856153e2565b61564c60c08301846153e2565b98975050505050505050565b60006101008201905061566e600083018b614c74565b8181036020830152615680818a614d96565b905061568f60408301896153e2565b61569c60608301886153e2565b81810360808301526156ae8187614d96565b90506156bd60a0830186614d4e565b81810360c08301526156cf8185614d96565b905081810360e08301526156e38184614d96565b90509998505050505050505050565b6000602082019050818103600083015261570c8184614c83565b905092915050565b6000602082019050818103600083015261572e8184614ce1565b905092915050565b6000602082019050818103600083015261574f81614dcf565b9050919050565b6000602082019050818103600083015261576f81614e0f565b9050919050565b6000602082019050818103600083015261578f81614e4f565b9050919050565b600060208201905081810360008301526157af81614e8f565b9050919050565b600060208201905081810360008301526157cf81614ecf565b9050919050565b600060208201905081810360008301526157ef81614f0f565b9050919050565b600060208201905081810360008301526158108184614f4f565b905092915050565b600060208201905081810360008301526158328184615014565b905092915050565b600060208201905081810360008301526158548184615167565b905092915050565b600060208201905081810360008301526158768184615218565b905092915050565b600060208201905081810360008301526158988184615307565b905092915050565b6000610120820190506158b6600083018c6153e2565b6158c3602083018b614c74565b6158d0604083018a614d4e565b81810360608301526158e28189614d96565b905081810360808301526158f68188614d96565b905061590560a08301876153e2565b61591260c08301866153e2565b61591f60e08301856153e2565b61592d6101008301846153e2565b9a9950505050505050505050565b6000604051905081810181811067ffffffffffffffff8211171561595e57600080fd5b8060405250919050565b600067ffffffffffffffff82111561597f57600080fd5b601f19601f8301169050602081019050919050565b6000819050602082019050919050565b6000819050602082019050919050565b600081519050919050565b600081519050919050565b600081519050919050565b6000602082019050919050565b6000602082019050919050565b600082825260208201905092915050565b600082825260208201905092915050565b600082825260208201905092915050565b600082825260208201905092915050565b6000615a3e82615a63565b9050919050565b6000615a5082615a63565b9050919050565b60008115159050919050565b600073ffffffffffffffffffffffffffffffffffffffff82169050919050565b6000819050919050565b82818337600083830152505050565b60005b83811015615aba578082015181840152602081019050615a9f565b83811115615ac9576000848401525b50505050565b6000601f19601f8301169050919050565b615ae981615a33565b8114615af457600080fd5b50565b615b0081615a45565b8114615b0b57600080fd5b50565b615b1781615a57565b8114615b2257600080fd5b50565b615b2e81615a83565b8114615b3957600080fd5b5056fea365627a7a72315820b6dec8844f2f07ff51763b830e0cdd7e67cfc9d4e15e3e1f2ff88bed1fd4d62d6c6578706572696d656e74616cf564736f6c63430005100040",
  "source": "pragma solidity ^0.5.16;\r\npragma experimental ABIEncoderV2;\r\ncontract smartrat {\r\n\r\naddress public admin;\r\n\r\nstruct farmer{\r\n    address payable farmerID;\r\n    string name;\r\n    uint pincode;\r\n    uint aadhaarID;\r\n    string ipfsHash;\r\n    bool active;\r\n    string mailID;\r\n    string phone;\r\n}\r\n\r\nstruct shop{\r\n    uint pincode;\r\n    address id;\r\n    bool active;\r\n    string mailID;\r\n    string phone;\r\n    uint rice;\r\n    uint sugar;\r\n    uint wheat;\r\n    uint kerosene;\r\n}\r\n\r\nstruct localAdmin{\r\n    address payable localID;\r\n    string name;\r\n    uint aadhaarID;\r\n    string mailID;\r\n    string phone;\r\n    uint pincode;\r\n    string ipfsHash;\r\n}\r\n\r\n\r\nstruct miller{\r\n    address payable miller_id;\r\n    string name;\r\n    uint pincode;\r\n    uint aadhaarID;\r\n    string ipfsHash;\r\n    bool active;\r\n    string mailID;\r\n    string phone;\r\n    uint storage_cap;\r\n    uint hulling_cap;\r\n}\r\n\r\nstruct distributor{\r\n    address id;\r\n    string name;\r\n    uint pincode;\r\n    uint aadhaarID;\r\n    string ipfsHash;\r\n    bool active;\r\n    string mailID;\r\n    string phone;\r\n}\r\n\r\nstruct goods{\r\n    address fromId;\r\n    address toId;\r\n    uint time;\r\n    uint rice;\r\n    uint sugar;\r\n    uint wheat;\r\n    uint kerosene;\r\n}\r\n\r\nmapping(address=>shop) public shops;\r\nmapping(address=>goods[]) public mygoods;\r\nmapping(uint=>address[]) public shopsByPin;\r\nmapping(address=>localAdmin) public lAdmins;\r\nmapping(address=>farmer) public farmers;\r\nmapping(uint=>address[]) public farmersByPin;\r\nmapping(address=>miller) public millers;\r\nmapping(uint=>address[]) public millersByPin;\r\nmapping(address=>distributor) public distributors;\r\nmapping(uint=>address[]) public distributorsByPin;\r\n\r\nconstructor() public{\r\n    admin=msg.sender;\r\n}\r\n\r\nfunction string_check(string memory str1, string memory str2) pure internal returns (bool) {\r\n    return (keccak256(abi.encodePacked(str1)) == keccak256(abi.encodePacked(str2)));\r\n}\r\n\r\n\r\nfunction createLAdmin(address payable _address,string memory _name,uint _aadhaar,string memory _mail,string memory _phone,string memory _ipfshash,uint _pincode) public{\r\n     require(msg.sender==admin,\"Forbidden\");\r\n     require(lAdmins[_address].localID!=_address,'Local Admin already exist');\r\n     lAdmins[_address]=localAdmin(_address,_name,_aadhaar,_mail,_phone,_pincode,_ipfshash);\r\n}\r\n\r\n\r\nfunction createShop(uint _pincode,address payable _address,string memory _mail,string memory _phone) public{\r\n    require(msg.sender==admin || msg.sender==lAdmins[msg.sender].localID,'Forbidden');\r\n    require(shops[_address].id==address(0),\"Shop already exist\");\r\n    shops[_address]=shop(_pincode,_address,true,_mail,_phone,0,0,0,0);\r\n    shopsByPin[_pincode].push(_address);\r\n}\r\n\r\nfunction getShopsByPin(uint _pincode) public returns(address[] memory){\r\n    return(shopsByPin[_pincode]);\r\n}\r\n\r\nfunction getShopsByAddress(address _address) public returns(shop memory){\r\n    return(shops[_address]);\r\n}\r\n\r\nfunction getLAdminDetails(address payable _address) public returns(localAdmin memory){\r\n    return(lAdmins[_address]);\r\n}\r\n\r\nfunction updateTransaction(address _to,uint _time,uint _rice,uint _sugar,uint _wheat,uint _kerosene) public{\r\n\t  mygoods[msg.sender].push(goods(msg.sender,_to,_time,_rice,_sugar,_wheat,_kerosene));\r\n    mygoods[_to].push(goods(msg.sender,_to,_time,_rice,_sugar,_wheat,_kerosene));\r\n    if(shops[msg.sender].id==msg.sender){\r\n      shops[msg.sender].rice-=_rice;\r\n      shops[msg.sender].sugar-=_sugar;\r\n      shops[msg.sender].wheat-=_wheat;\r\n      shops[msg.sender].kerosene-=_kerosene;\r\n    }\r\n    if(shops[_to].id==_to){\r\n      shops[_to].rice+=_rice;\r\n      shops[_to].sugar+=_sugar;\r\n      shops[_to].wheat+=_wheat;\r\n      shops[_to].kerosene+=_kerosene;\r\n    }\r\n}\r\n\r\nfunction getTransactionByAddress(address _address) public returns(goods[] memory){\r\n    return(mygoods[_address]);\r\n}\r\n\r\nfunction createFarmer(address payable _address,string memory _name,uint _pincode,uint _aadharID,string memory _ipfsHash,string memory _mail,string memory _phone) public{\r\n    require(msg.sender==admin || lAdmins[msg.sender].localID==msg.sender,'Forbidden');\r\n    require(farmers[_address].farmerID!=_address,\"Farmer already registered\");\r\n    farmers[_address]=farmer(_address,_name,_pincode,_aadharID,_ipfsHash,true,_mail,_phone);\r\n    farmersByPin[_pincode].push(_address);\r\n}\r\n\r\nfunction getFarmersByPin(uint _pincode) public returns(address[] memory){\r\n    return(farmersByPin[_pincode]);\r\n}\r\n\r\nfunction getFarmersById(address _address) public returns(farmer memory){\r\n    return(farmers[_address]);\r\n}\r\n\r\nfunction createMiller(address payable _address,string memory _name,uint _pincode,uint _aadharID,string memory _ipfsHash,string memory _mail,string memory _phone,uint s_cap,uint h_cap) public{\r\n    require(msg.sender==admin || msg.sender==lAdmins[msg.sender].localID,'Forbidden');\r\n    require(millers[_address].miller_id!=_address,\"Miller already registered\");\r\n    millers[_address]=miller(_address,_name,_pincode,_aadharID,_ipfsHash,true,_mail,_phone,s_cap,h_cap);\r\n    millersByPin[_pincode].push(_address);\r\n}\r\n\r\nfunction getMillersByPin(uint _pincode) public returns(address[] memory){\r\n    return(millersByPin[_pincode]);\r\n}\r\n\r\nfunction getMillersById(address _address) public returns(miller memory){\r\n    return(millers[_address]);\r\n}\r\n\r\nfunction createDistributor(address _address,string memory _name,uint _pincode,uint _aadharID,string memory _ipfsHash,bool _active,string memory _mail,string memory _phone) public{\r\n    require(msg.sender==admin || msg.sender==lAdmins[msg.sender].localID,'Forbidden');\r\n    require(distributors[_address].id!=_address,\"Distributor already registered\");\r\n    distributors[_address]=distributor(_address,_name,_pincode,_aadharID,_ipfsHash,true,_mail,_phone);\r\n    distributorsByPin[_pincode].push(_address);\r\n}\r\n\r\nfunction getDistributorsByPin(uint _pincode) public returns(address[] memory){\r\n    return(distributorsByPin[_pincode]);\r\n}\r\n\r\nfunction getDistributorsById(address _address) public returns(distributor memory){\r\n    return(distributors[_address]);\r\n}\r\n\r\n}\r\n",
  "sourcePath": "C:/Users/alone/Downloads/Compressed/starter_kit-master/starter_kit-master/src/contracts/smartrat.sol",
  "compiler": {
    "name": "solc",
    "version": "0.5.16+commit.9c3226ce.Emscripten.clang"
  },
  "schemaVersion": "3.3.4",
  "updatedAt": "2021-04-29T10:01:53.674Z",
  "networkType": "ethereum",
  "devdoc": {
    "methods": {}
  },
  "userdoc": {
    "methods": {}
  }
}